:020000040800F2
:1000000000500020A118000871170008731700089D
:10001000751700087717000879170008000000001E
:100020000000000000000000000000007B17000836
:100030007D170008000000007F17000881170008E6
:10004000E9180008E9180008E9180008E91800088C
:10005000E9180008E9180008E9180008E91800087C
:10006000E9180008E9180008E9180008E91800086C
:10007000E9180008E9180008E9180008E91800085C
:10008000E9180008E9180008E9180008E91800084C
:10009000E9180008E9180008E9180008E91800083C
:1000A000E9180008E9180008E9180008E91800082C
:1000B000E9180008E9180008E9180008E91800081C
:1000C000E9180008E9180008E9180008E91800080C
:1000D000E918000885170008B9170008E918000892
:1000E000E9180008E9180008E918000800000000F5
:1000F0000000000000000000000000000000000000
:0C01000000000000000000005FF808F1A3
:10010C0010B5054C237833B9044B13B10448AFF345
:10011C0000800123237010BDDC01002000000000D2
:10012C00002E000808B5034B1BB103490348AFF37D
:10013C00008008BD00000000E0010020002E000837
:10014C00034613F8012B002AFBD1181A013870470B
:10015C0038B50E4B054618784FF47A73B3FBF0F3B1
:10016C000B4A1068B0FBF3F000F08CF8044658B959
:10017C000F2D09D8024629464FF0FF3000F042F807
:10018C00044B20461D6038BD012038BD0000002006
:10019C000800002004000020074A08B5136803205B
:1001AC0043F01003136000F01BF80020FFF7D0FFA2
:1001BC0001F03EFA002008BD00200240034A044B27
:1001CC0011681B780B441360704700BF14020020A9
:1001DC0000000020014B1868704700BF140200207B
:1001EC00074A0002D36800F4E06023F4E0631B04C8
:1001FC001B0C43F0BF6343F400330343D3607047DD
:10020C0000ED00E0174B30B5DC68C4F30224C4F1F8
:10021C000703251D042B28BF0423062D4FF00105D1
:10022C0098BF002405FA03F303F1FF3388BF033CA6
:10023C001940A14005FA04F4013C2240002842EA8E
:10024C0001024FEA0212AFBF00F16040064B00F012
:10025C000F00D2B2A5BFD2B200F561401A5480F89B
:10026C00002330BD00ED00E014ED00E00123420955
:10027C0000F01F0003FA00F0014B43F82200704716
:10028C0000E100E00138B0F1807F0AD2F021064B8A
:10029C00064A586082F823100020072298601A60E2
:1002AC0070470120704700BF10E000E000ED00E057
:1002BC0090F8213010B5022B03D004238363012066
:1002CC0010BD03681A6822F00E021A601A6822F038
:1002DC0001021A60184A93421FD0143293421ED066
:1002EC00143293421DD0143293421DD014329342D7
:1002FC001DD0143293420CBF4FF480134FF0807317
:10030C000E4A00245360012380F82130436B80F89F
:10031C0020407BB19847204610BD0123F0E7102305
:10032C00EEE74FF48073EBE74FF48053E8E74FF4BC
:10033C008033E5E7184610BD08000240000002407B
:10034C002DE9F74F00221646654BDFF8A4E1DFF8E4
:10035C00A4C14FF001080C6808FA06F808EA040476
:10036C00A0457FD14D68122D00F0AF8000F288803F
:10037C00022D00F0A7807CD8002D00F08E80012D7E
:10038C0000F09E804FF00F09FF2C93BF824606F1C0
:10039C008045083DD0F800B092BFB500D0F804B04D
:1003AC00AD0009FA05F82BEA080802FA05F588BF32
:1003BC0000F1040A48EA0505CAF80050D1F804A077
:1003CC001AF0805F4ED0474D464FAD6926F00308BA
:1003DC0045F00105BD61BD6908F1804805F00105D6
:1003EC00019508F5803806F0030B019D4FEA8B0B45
:1003FC00D8F8085009FA0BF925EA09093A4DA84230
:10040C0068D005F58065A84266D005F58065A842E0
:10041C0064D005F58065A8420CBF0325042505FAB8
:10042C000BF545EA0905C8F808501D681AF4803F19
:10043C0014BF2543A5431D605D681AF4003F14BF2B
:10044C002543A5435D609D681AF4801F14BF2543A6
:10045C00A5439D60DD681AF4001F14BF2C4325EAE8
:10046C000404DC600136102E7FF473AF03B0BDE8DA
:10047C00F08F032D22D0112D84D1CA68043281E76C
:10048C001A4FBD4209D012D8DFF86C904D4504D0FC
:10049C0009F580394D457FF475AF8A68C2B1012AE0
:1004AC000CBFC0F81080C0F8148008226AE77545AC
:1004BC00F3D06545F1D0DFF84490EBE7002261E71B
:1004CC00CA685FE7CA6808325CE7CA680C3259E749
:1004DC00042257E70025A2E70125A0E702259EE7A5
:1004EC0000040140001002400008014000002110EF
:1004FC00000031100000321000001110000022101A
:10050C0003682DE9F341DB07054610D42B689F07E0
:10051C005ED42B68190700F195802B685A0700F1FF
:10052C00BF80EA69002A40F02D81002014E0904C35
:10053C00636803F00C03042B07D0636803F00C030F
:10054C00082B0CD16368DE0309D523689C03DDD529
:10055C006B68002BDAD1012002B0BDE8F0816B682A
:10056C00B3F5803F10D1236843F480332360FFF749
:10057C0031FE064623689803C8D4FFF72BFE801B78
:10058C006428F7D90320E7E79BB9236823F4803369
:10059C002360236823F480232360FFF71BFE0646A9
:1005AC0023689903B2D5FFF715FE801B6428F7D991
:1005BC00E8E7B3F5A02F236803D143F4802323602D
:1005CC00D1E723F480332360236823F48023CDE721
:1005DC00674C636813F00C0F07D0636803F00C03CF
:1005EC00082B10D16368DA030DD423689B0702D55E
:1005FC002B69012BAFD123686A6923F0F80343EA16
:10060C00C203236085E72A695A4B6AB101221A603A
:10061C00FFF7E0FD064623689F07ECD4FFF7DAFDF1
:10062C00801B0228F7D9ADE71A60FFF7D3FD064609
:10063C00236898077FF56DAFFFF7CCFD801B022870
:10064C00F6D99FE7AA694A4C4B4BDAB101221A60E2
:10065C00FFF7C0FD0646636A9B070DD54FF4FA52AF
:10066C00464B1B68B3FBF2F3019300BF019B5A1E70
:10067C000192002BF9D150E7FFF7ACFD801B02284B
:10068C00E9D97FE71A60FFF7A5FD0646636A9F0765
:10069C007FF543AFFFF79EFD801B0228F6D971E76B
:1006AC00334CE369D80024D40127E36943F0805329
:1006BC00E361E36903F080530093009B304E336891
:1006CC00D90518D5EB68012B26D1236A43F0010319
:1006DC002362FFF77FFD41F288368046236A9B0731
:1006EC003FD5002F3FF41DAFE36923F08053E36146
:1006FC0017E70027E2E7336843F480733360FFF7B2
:10070C0069FD80463368DA05DCD4FFF763FDA0EBA6
:10071C0008006428F6D935E7ABB9236A41F288386A
:10072C0023F001032362236A23F004032362FFF7FF
:10073C0051FD0646236A9807D3D5FFF74BFD801B66
:10074C004045F7D91EE7052B236A03D143F0040378
:10075C002362BAE723F001032362236A23F0040324
:10076C00B6E7FFF737FDA0EB0800B042B6D909E7B2
:10077C000010024000004242800442420800002067
:10078C0000700040224C636803F00C03082B3FF40C
:10079C00E2AE00231F4E022A33602BD1FFF71AFD65
:1007AC000746236899011FD42B6AB3F5803F05D106
:1007BC006268A96822F400320A436260696A62685E
:1007CC000B4322F474121343636001233360FFF76D
:1007DC0001FD054623689A013FF5A7AEFFF7FAFC29
:1007EC00401B0228F6D9CDE6FFF7F4FCC01B02280B
:1007FC00D7D9C7E6FFF7EEFC054623689B017FF5CA
:10080C0094AEFFF7E7FC401B0228F6D9BAE600BF0E
:10081C00001002406000424230B5194B87B002AC68
:10082C0003F11005224618685968083303C2AB421D
:10083C001446F7D101238DF80430022311498DF8A9
:10084C0005304B6803F00C02082A17D1C3F383421E
:10085C0006A80244DB0312F8102C0CD54B680A488E
:10086C00C3F34043504306AA134413F8143CB0FBA3
:10087C00F3F007B030BD05485043FAE70248F8E7FB
:10088C00182E00080010024000127A0000093D00EA
:10089C00544A2DE9F0411368054603F007038B42D7
:1008AC000E462AD329688C0734D4CA0747D44D4A3C
:1008BC00136803F007039E42C0F082802A684A4CFA
:1008CC0012F0040F40F08780130706D563682A697D
:1008DC0023F4605343EAC2036360FFF79DFF636830
:1008EC00424AC3F30313D35CD840414B1860002039
:1008FC00FFF72EFC0020BDE8F081136823F00703FE
:10090C000B431360136803F007039942CAD001200C
:10091C00BDE8F081344B11F0040F1EBF5A6842F44D
:10092C00E0625A60080742BF5A6842F460525A604B
:10093C005A68A86822F0F00202435A60B5E76A6868
:10094C00294C012A23681CD113F4003FDFD06368C3
:10095C0041F2883823F0030313436360FFF73AFC3A
:10096C006B680746012B14D1636803F00C03042B4E
:10097C009DD0FFF72FFCC01B4045F5D90320BDE8E7
:10098C00F081022A02D113F0007FDFE713F0020F8F
:10099C00DCE7022B0FD1636803F00C03082B86D025
:1009AC00FFF718FCC01B4045F5D9E7E7FFF712FC31
:1009BC00C01B4045E2D8636813F00C0FF6D176E704
:1009CC00136823F0070333431360136803F0070322
:1009DC009E429CD172E76368E96823F4E0630B43A1
:1009EC00636071E70020024000100240812F000874
:1009FC0008000020044B054A5B68C3F30223D35C58
:100A0C00034A1068D840704700100240912F00082C
:100A1C0008000020044B054A5B68C3F3C223D35C77
:100A2C00034A1068D840704700100240912F00080C
:100A3C00080000200368DA6822F49072DA605A69C0
:100A4C0022F001025A61202380F83A3070470000EE
:100A5C002DE9F0470568C2682B69016923F44053FE
:100A6C0013432B618368EA680B43416922F4B0524B
:100A7C0022F00C020B431343EB606B69826923F485
:100A8C00407313436B61404B81469D424FF01904F8
:100A9C0046D1FFF7BFFF04FB00F3D9F804604FF019
:100AAC006408B600B3FBF6F3B3FBF8F31E01FFF7D3
:100ABC00B1FF6043D9F804309B00B0FBF3F7FFF7AC
:100ACC00A9FF6043D9F804309B00B0FBF3F3B3FBF0
:100ADC00F8F308FB13731B013233B3FBF8F303F089
:100AEC00F007FFF797FF6043D9F804209200B0FBA2
:100AFC00F2FAFFF78FFF6043D9F804309B00B0FB8C
:100B0C00F3F3B3FBF8F308FB13A31B013233B3FB72
:100B1C00F8F303F00F033B433344AB60BDE8F087BD
:100B2C00FFF768FF04FB00F3D9F804604FF064088A
:100B3C00B600B3FBF6F3B3FBF8F31E01FFF75AFF55
:100B4C006043D9F804309B00B0FBF3F7FFF752FF7A
:100B5C006043D9F804309B00B0FBF3F3B3FBF8F31C
:100B6C0008FB13731B013233B3FBF8F303F0F007EC
:100B7C00FFF740FF6043D9F804209200B0FBF2FA73
:100B8C00FFF738FFB7E700BF00380140F8B504465F
:100B9C000E4617461D4621680B6836EA030301D141
:100BAC000020F8BD6B1CF7D095B923680320DA68D8
:100BBC0022F4D072DA605A6922F001025A612023C1
:100BCC0084F8393084F83A30002384F83830F8BD92
:100BDC00FFF700FBC01B8542DDD2E6E710B50446EB
:100BEC0040B390F8393003F0FF021BB980F838207D
:100BFC0000F040FD2423226884F83930D368204665
:100C0C0023F40053D360FFF723FF236800201A69F5
:100C1C0022F490421A615A6922F02A025A61DA6867
:100C2C0042F40052DA602023E06384F8393084F80F
:100C3C003A3010BD012010BD2DE9F0411F4690F84F
:100C4C0039300446202B0D4690464ED1002949D010
:100C5C00002A47D090F83830012B46D0012380F879
:100C6C0038300023C363212380F83930FFF7B2FA00
:100C7C000646A4F82480A4F82680E38C9BB26BB9BA
:100C8C003B46324640212046FFF780FFA8B920237F
:100C9C0084F8380084F83930BDE8F081E38C3246B2
:100CAC00013B9BB2E384A3688021B3F5805F2046AF
:100CBC003B460ED1FFF76AFF10B10320BDE8F0816F
:100CCC002B882268C3F308035360236943B90235A8
:100CDC00D3E7FFF75BFF0028EFD123682A785A602F
:100CEC000135CAE70120BDE8F0810220BDE8F081A2
:100CFC0090F83A30202B20D1E9B1E2B190F838309D
:100D0C00012B1AD0C285828500232222C36380F86E
:100D1C003A2002688162D16880F8383041F48071E1
:100D2C00D1605169184641F001015161D16841F01F
:100D3C002001D16070470120704702207047704736
:100D4C00704790F83A3010B5222B36D18368016980
:100D5C00B3F5805F0268836A23D15268E9B9C2F3A4
:100D6C00080223F8022B8362C48D013CA4B2C48513
:100D7C008CB90368DA6822F02002DA60DA6822F4AF
:100D8C008072DA605A6922F001025A61202380F8DD
:100D9C003A30FFF7D5FF002010BDD2B223F8012B5B
:100DAC00E1E721B9591C526881621A70DCE752687C
:100DBC00591C816202F07F02F7E7022010BD7047D8
:100DCC00036870B51A6804461607D9685D6907D1BF
:100DDC0096065AD58D0658D5BDE87040FFF7B1BFC1
:100DEC0015F0010502D111F4907F4ED0D30705D533
:100DFC00CE0542BFE36B43F00103E363500704D518
:100E0C001DB1E36B43F00203E363930704D51DB1FB
:100E1C00E36B43F00403E363160704D51DB1E36BE6
:100E2C0043F00803E363E36B002B66D0950604D50F
:100E3C00880602D52046FFF784FF236820465D69AB
:100E4C00E26B110702D415F040051AD0FFF7F2FD42
:100E5C0023685A69520610D55A69606B22F0400219
:100E6C005A6150B1254B4363FFF722FA002844D056
:100E7C00606BBDE87040436B18472046FFF79FFF3F
:100E8C0070BDFFF79CFFE56370BD160627D50D06F8
:100E9C0025D594F83920212A2FD1A268B2F5805F8C
:100EAC00226A17D11188C1F308015960216979B9F7
:100EBC0002322262E28C013A92B2E284EAB9DA6836
:100ECC0022F08002DA60DA6842F04002DA6070BD2B
:100EDC000132EEE7511C216212785A60EAE75006A3
:100EEC000BD54A0609D5DA68204622F04002DA60B2
:100EFC00202384F83930FFF722FF70BD0D0F000856
:100F0C0008B50023406AC385C384FFF758FF08BDAA
:100F1C0003461A1A92B2914201D80020704713F876
:100F2C00012B4F2AF5D11A784B2AF2D101207047A8
:100F3C0070B504460A4E4518AC4201D1002070BD74
:100F4C00204603780134632BF6D123786F2BF3D131
:100F5C000E22314600F0F2FC0028EDD1012070BDCC
:100F6C00FE2E00082DE9F84307460E460025DFF853
:100F7C008C90AE42ACB202D10020BDE8F883781957
:100F8C000522494600F0DAFC013580460028F0D1F4
:100F9C000534A4B23C44B8551449204600F090FDE9
:100FAC0070B91349204600F08BFD044600F097FC05
:100FBC00224601460F4800F0E3FC0120BDE8F8830F
:100FCC0000F08DFC0A490546404600F079FD00F022
:100FDC0086FC04460649404600F072FD331B3B4438
:100FEC0022462946044800F0CBFCE6E7112F000806
:100FFC00132F0008152F0008272F00080D2F0008AD
:10100C0040F204420021014800F0B2BC1C06002052
:10101C00074B0D28B3F8022402F10101985408BFC4
:10102C000122A3F8021408BF83F80024704700BF04
:10103C001C06002040F2FE31064A138850888B4271
:10104C0003DDB0FA80F04009704701331B1A584297
:10105C005841704718020020044B18885B8898424E
:10106C0038BF00F58060C01A80B2704718020020AB
:10107C0038B540F2FE33084C054622889A42C4BF6C
:10108C0000232380FFF7D6FF20B923885A1C228027
:10109C001C44257138BD00BF1802002008B540F271
:1010AC00FE33084A51889942C4BF00235380FFF78E
:1010BC00D3FF28B15388591C51801A44107908BDAC
:1010CC00FF2008BD18020020F0B506460024ADF53F
:1010DC00017DFFF7C1FF671C0546A4B290B90DF85E
:1010EC00040021466A460C4800F04AFC214668463A
:1010FC00B04768B10120094B1D80094B1D800DF5CF
:10110C00017DF0BDFFF7CAFF0DF804003C46E0E797
:10111C00044B1880F3E700BF442F0008FA010020AD
:10112C00FE0100200202002010B54EF66024038858
:10113C0001339BB2A342038001D8002010BD0B8861
:10114C0001330B800023038008889042F5D90B8073
:10115C00012010BD2DE9F041ADF5007D06460F468E
:10116C00FFF77AFF214B00283DD01A7882423AD102
:10117C000024FFF771FF04F101080546A4B2C0B9C1
:10118C0021460DF804006A46194800F0F9FB684640
:10119C00FEF7D6FF01466846B84780B10120154BD3
:1011AC001D70154B1D80154B1D800DF5007DBDE888
:1011BC00F081FFF773FF0DF804004446D9E7104A9D
:1011CC0013780133137032460C490B48FFF7ACFF10
:1011DC0000220028E9D0074B09491A700B781046F9
:1011EC0001330B70E1E71870EDE700BF000200203F
:1011FC00442F000804020020F8010020FC0100200C
:10120C000502002010B5C2B029B902461E4902A839
:10121C0000F032FC06E0012911D102461B4902A85C
:10122C0000F02AFC044602AA0146194800F0A8FB6B
:10123C0002A8A1B200F074F9204642B010BD0229F8
:10124C0002D102461349E2E7032902D102461249B0
:10125C00DDE7042903D1449B02461049D7E7052951
:10126C0003D1449B02460E49D1E7062903D1449B86
:10127C0002460C49CBE700930B491346024602A8E1
:10128C0000F0FAFBCEE700BF602E00086B2E0008C2
:10129C00C82E0008732E0008822E0008912E00081C
:1012AC00A02E0008AF2E0008BA2E0008F7B5144D7A
:1012BC00DDF820E02C78BDF828600B9F64B9CDF8E0
:1012CC0000E0FFF79FFF01232B700E4B1C800E4B91
:1012DC001C80002003B0F0BD012C09D103220A4967
:1012EC000848FFF721FF0028F3D002232B70F0E70A
:1012FC003946304603B0BDE8F040FFF72BBF00BFC6
:10130C0004020020F8010020FC01002010B50A4660
:10131C0004460A490A48FFF707FF60B1FFF79CFE35
:10132C00084B38B11A88824204D12046BDE81040DF
:10133C00FFF7CABE1880002010BD00BFFE010020C0
:10134C00FA0100200202002030B52F4D85B02B7819
:10135C00062B2ED8DFE803F0041622313D49560047
:10136C002A4B002403930A232246029302210123D1
:10137C00274801940094FFF799FFD0B12B780133E3
:10138C002B7017E0214B00240393642301940293E8
:10139C0000940223224621461E48ECE703211E48F6
:1013AC00FFF7B4FF28B11D4800F05EFB2B7801332A
:1013BC002B700024204605B030BD144B0024039341
:1013CC000A230194029300942346224601211448D7
:1013DC00D1E70E4B002403930A230194029300944B
:1013EC000123224621460F48C5E7084B00240393EE
:1013FC00642301940293009441F289330122072162
:10140C000948B8E70124D5E7060200201D0F0008A3
:10141C00D52E0008282E00083D0F0008352E000898
:10142C00492E00084F2E0008562E00082DE9F04FCB
:10143C00894685B015461F4628B34FF00A0ADFF8D7
:10144C0064B0DFF864800024CDF80CB0CDF808A0AF
:10145C00019400942B464A4607214046FFF726FF8D
:10146C00C6B2002EEFD0012E15D12946384600F019
:10147C0057F87C553A462946084800F081FA304620
:10148C0005B0BDE8F08F03210548FFF73FFF0030A2
:10149C0018BF0120F4E72046F2E700BF652F0008D3
:1014AC00710F00081D0F00085D2F000870B5104C5F
:1014BC0094F80054A5B10026B4F8021422460D4845
:1014CC00665484F8006400F05BFA2346B4F80224F6
:1014DC0031460120FFF7AAFFA4F80264284670BD2C
:1014EC002B462A4629462846FFF7A0FFF6E700BF01
:1014FC001C060020522F0008F8B50E461546002495
:10150C00064FAC4201DB2846F8BD31194FF6FF738C
:10151C0001223846FFF790FB0134F2E7640A002001
:10152C000A464FF6FF7301460148FFF785BB00BF23
:10153C00240A002010B590B02822002106A800F043
:10154C0017FA1422002101A800F012FA01230A93C1
:10155C00102302240B934FF4601306A80F930694E8
:10156C000D94FEF7CDFF0F234FF4806201930023FF
:10157C00214601A80294039304920593FFF788F97E
:10158C0010B010BD2DE9F34100244FF4E1380C27C5
:10159C00FEF702FEFFF7CEFF1E4B1F4E9A691F4D42
:1015AC0042F004029A619B69304603F004030193F4
:1015BC00019B1B4BB46086E80801F46034617761D1
:1015CC00B461F461FFF70AFB164B284685E8080165
:1015DC00AC60EC602C616F61AC61EC61FFF7FEFA02
:1015EC00012211493046FFF783FB01220E492846A0
:1015FC00FFF77EFBFFF704FD0C4800F035FA2CB921
:10160C00FFF7A2FE041C18BF0124F8E7FFF74EFFFA
:10161C00FCE700BF00100240240A0020640A0020EE
:10162C000038014000440040200A0020772F0008B9
:10163C000E4B82B09A6942F001029A619A6902F0EB
:10164C0001020092009ADA6942F08052DA61DB6999
:10165C00074A03F080530193019B536823F0E06326
:10166C0043F00073536002B0704700BF001002409B
:10167C0000000140102210B5044688B00DEB0200AA
:10168C00002100F075F92368324A934231D1324B74
:10169C0004A99A69314842F480429A619A690024FB
:1016AC0002F480420092009A9A6942F004029A6114
:1016BC009B6903F004030193019B4FF400730493A3
:1016CC000223059303230793FEF73AFE4FF480633E
:1016DC0004A92248049305940694FEF731FE2520B4
:1016EC0022462146FEF78EFD2520FEF7BFFD08B0F1
:1016FC0010BD1B4A9342FAD1174B04A9DA6917485B
:10170C0042F40032DA61DA69002402F40032029207
:10171C00029A9A6942F004029A619B6903F00403ED
:10172C000393039B0423049302230593032307933E
:10173C00FEF706FE082304A90848049305940694B2
:10174C00FEF7FEFD262022462146FEF75BFD2620F5
:10175C00CBE700BF003801400010024000080140F8
:10176C00004400407047FEE7FEE7FEE7FEE77047E7
:10177C0070477047FEF722BD13B50B4C22681168F9
:10178C008B0603D55068C0B2FFF772FC002301939F
:10179C00236805481A6801925B680193019BFFF767
:1017AC000FFB02B010BD00BF240A002013B50B4C78
:1017BC00226811688B0603D55068C0B2FFF728FC6D
:1017CC0000230193236805481A6801925B68019312
:1017DC00019BFFF7F5FA02B010BD00BF640A0020B0
:1017EC0070B50E4615460C46A31B9D4201DC2846DF
:1017FC0070BDAFF3008004F8010BF5E708B50A4B98
:10180C000246196809B90949196069461868024401
:10181C008A4206D900F068F80C2303604FF0FF30C1
:10182C0008BD1A6008BD00BF08020020A80A0020ED
:10183C004FF0FF3070474FF4005300204B6070475F
:10184C0001207047002070470F4B1A6842F00102CC
:10185C001A6059680D4A0A405A601A6822F084725C
:10186C0022F480321A601A6822F480221A605A68B4
:10187C0022F4FE025A604FF41F029A604FF000628D
:10188C00034B9A60704700BF001002400000FFF845
:10189C0000ED00E0002103E00B4B5B58435004319A
:1018AC000A480B4B42189A42F6D30A4A02E000232C
:1018BC0042F8043B084B9A42F9D3FFF7C5FF00F0FE
:1018CC0019F8FFF75FFE7047483100080000002050
:1018DC00DC010020DC010020A80A0020FEE70A221F
:1018EC00002100F0C1B90000014B1868704700BF1F
:1018FC000C00002070B500250C4E0D4CA41BA41040
:10190C00A54209D101F076FA00250A4E0A4CA41B17
:10191C00A410A54205D170BD56F825309847013565
:10192C00EEE756F8253098470135F2E740310008CC
:10193C0040310008403100084431000810B501392D
:10194C000244904201D1002010BD10F8013B11F867
:10195C00014FA342F5D0181B10BD10B5431E0A440D
:10196C00914200D110BD11F8014B03F8014FF7E77C
:10197C0003460244934200D1704703F8011BF9E778
:10198C000FB40A4B13B51C6824B1A36913B92046D4
:10199C0000F032FB05AB049AA1682046019300F0DD
:1019AC0059FE02B0BDE8104004B070470C00002096
:1019BC0070B50E46054618B183690BB900F01CFBD7
:1019CC00AB69AC6813B9284600F016FB234B9C425C
:1019DC0017D16C68A3891B071DD52369DBB1013EA8
:1019EC00A36816F8011F013BA360E9B9002B2EDA9E
:1019FC0022460A21284600F04DF9013011D00A2068
:101A0C0070BD174B9C4201D1AC68E3E7154B9C426F
:101A1C0008BFEC68DEE72146284600F08DF9002867
:101A2C00DDD04FF0FF3070BD002B04DAA269934279
:101A3C0006DB0A2904D023685A1C22601970CFE7F0
:101A4C002246284600F026F90130C9D1E9E70A20E0
:101A5C0023685A1C2260187070BD00BFC02F00088C
:101A6C00E02F0008A02F0008024B01461868FFF772
:101A7C009FBF00BF0C0000200EB44FF4027100B5E4
:101A8C009CB0ADF814106FF00041049107914FF623
:101A9C00FF711DAB02900690084853F8042BADF86B
:101AAC001610006802A9019300F0B8FC0022029BFA
:101ABC001A701CB05DF804EB03B070470C000020EA
:101ACC00134B2DE9F0411D680646AC6D0F46B4B9B9
:101ADC00502000F083FBA865046044608460C460FF
:101AEC000461446184618462C462046344638463FA
:101AFC00C463046444648464C46404774462AA6D5B
:101B0C0039463046BDE8F041012300F003B800BF70
:101B1C000C000020F0B518B9106808B9F0BD2046CB
:101B2C0004460F4614F8015B17F8016B1EB965B932
:101B3C0015602846F0BDB542F6D1002BEFD11460EC
:101B4C000370F0BD1C460CE015B90E4614F8013BB1
:101B5C0016F8015BAB42F7D1002BF3D0002304F84D
:101B6C00013C1460F0BD2DE9F84F80468946924641
:101B7C001F468B465D460A9815F8014B00F0C6FAD5
:101B8C002044467816F008060BD12D2C0BD10126DB
:101B9C002C780BF1020567B1102F14D1302C0AD020
:101BAC0011E0AB46E6E72B2C04BF2C780BF10205B9
:101BBC00F1E7302C27D12B7803F0DF03582B4BD1D6
:101BCC0010276C780235002E0CBF6FF000414FF0DF
:101BDC0000410022B1FBF7FE104607FB1E1CA4F1CE
:101BEC003003092B11D81C46A7421DDD531C07D00E
:101BFC00864516D301D1A44513DB012200FB074017
:101C0C0015F8014BEBE70A27DDE7A4F14103192B8B
:101C1C0001D8373CE8E7A4F16103192B04D8573CF1
:101C2C00E2E74FF0FF32EBE7531C08D122230846C2
:101C3C00C8F80030BAF1000F07D1BDE8F88F06B133
:101C4C004042BAF1000F0CD022B1013DCAF800504D
:101C5C00BDE8F88F4D46F9E73024002FB3D10827A3
:101C6C00B1E7BDE8F88F0000084B37B51C68084D8C
:101C7C00236A002B08BF2B46009313460A460146E5
:101C8C002046FFF770FF03B030BD00BF0C000020F2
:101C9C0070000020F8B50E461446054618B183694D
:101CAC000BB900F0A9F9214B9C422AD16C68A369AD
:101CBC00A360A3891A072ED5236963B3236920680F
:101CCC00F6B2C01A63693746984204DB21462846AF
:101CDC0000F028F928BBA3680130013BA3602368FE
:101CEC005A1C22601E706369984204D0A389DB07DA
:101CFC0019D50A2E17D12146284600F013F990B1B8
:101D0C000FE00B4B9C4201D1AC68D0E7094B9C42D5
:101D1C0008BFEC68CBE72146284600F00DF80028F8
:101D2C00CCD04FF0FF373846F8BD00BFC02F0008AD
:101D3C00E02F0008A02F0008324B70B51D68064636
:101D4C000C4625B1AB6913B9284600F055F92E4B5A
:101D5C009C420FD16C68B4F90C309AB215072CD494
:101D6C00D00611D40922326043F04003A3814FF016
:101D7C00FF3070BD254B9C4201D1AC68EBE7244B86
:101D8C009C4208BFEC68E6E7510712D5616B41B184
:101D9C0004F14403994202D0304600F039FA002392
:101DAC006363A38923F02403A38100236360236965
:101DBC002360A38943F00803A38123694BB9A3894A
:101DCC0003F42073B3F5007F03D02146304600F0B6
:101DDC00C5F9A28912F001030CD00023A36063693A
:101DEC005B42A361236953B9B4F90C3013F0800042
:101DFC00BAD170BD920758BF6369A360F2E70020A7
:101E0C00F7E700BF0C000020C02F0008E02F0008EF
:101E1C00A02F00088A892DE9F041054610070C46D1
:101E2C005AD44B68002B05DC0B6C002B02DC002019
:101E3C00BDE8F081E66A002EF9D0002312F480523E
:101E4C002F682B6033D0606DA3895A0705D5636862
:101E5C00C01A636B0BB1236CC01A00230246E66AEE
:101E6C00216A2846B047431CA38906D129681D293D
:101E7C004BD82B4ACA40D60747D50022626022694C
:101E8C00D904226004D5421C01D12B6803B96065CA
:101E9C00616B2F600029CAD004F14403994202D02F
:101EAC00284600F0B5F900206063BDE8F081216A96
:101EBC0001232846B047411CC6D12B68002BC3D048
:101ECC001D2B01D0162B01D12F60B0E7A38943F055
:101EDC004003A381BDE8F0810F69002FA7D09307C1
:101EEC0018BF00230E6808BF4B69A6EB07080F60EC
:101EFC008B60B8F1000F9ADD43463A46216A2846BA
:101F0C00A66AB047002807DCA38943F04003A381ED
:101F1C004FF0FF30BDE8F0810744A8EB0008E8E77C
:101F2C000100402038B50B6905460C46DBB118B1F1
:101F3C0083690BB900F060F80C4B9C4209D16C68BA
:101F4C00B4F90C307BB121462846BDE83840FFF788
:101F5C0061BF074B9C4201D1AC68F1E7054B9C4239
:101F6C0008BFEC68ECE7002038BD00BFC02F0008AC
:101F7C00E02F0008A02F0008014900F0A9B800BF0D
:101F8C00311F0008002310B50446036043608360D2
:101F9C0081814366C28103614361836119460822D2
:101FAC005C30FFF7E5FC054B24626362044BA362D3
:101FBC00044BE362044B236310BD00BFDD2B000810
:101FCC00FF2B0008372C00085B2C000870B5682527
:101FDC004A1E55430E4605F1740100F065F904469E
:101FEC0040B1002180E842000C30A06005F168028D
:101FFC00FFF7BEFC204670BD836910B5044633BBA9
:10200C008364C3640365124B124A1B688262984254
:10201C0004BF0123836100F01FF86060204600F0CC
:10202C001BF8A060204600F017F80022E0600421A5
:10203C006068FFF7A7FF01220921A068FFF7A2FF44
:10204C0002221221E068FFF79DFF0123A36110BD5E
:10205C009C2F0008851F0008F8B51C4B07461E680E
:10206C00B36913B93046FFF7C7FF4836B4687368D5
:10207C00013B03D5336833B13668F7E7B4F90C503C
:10208C006DB16834F4E704213846FFF79FFF3060E8
:10209C000028F1D10C2304463B602046F8BD4FF6D6
:1020AC00FF73E38101236566A3812560A5606560EC
:1020BC0025616561A5610822294604F15C00FFF7E2
:1020CC0057FC6563A563A564E564E6E79C2F0008EF
:1020DC002DE9F84380468946002600F1480414B9DE
:1020EC003046BDE8F883A5686768013F01D52468D0
:1020FC00F5E7AB89012B07D9B5F90E30013303D0C5
:10210C0029464046C84706436835EEE7D0F8EC0050
:10211C00704770B50E46B1F90E1090B000291446F8
:10212C001D4607DA00232B60B3891A0610D44FF42E
:10213C0080630EE001AA00F0BDFD0028F2DB029ADC
:10214C0002F47042A2F500535A425A412A60EEE75B
:10215C0040230020236010B070BD00008B8973B544
:10216C009D0706460C4607D504F1470323602361FF
:10217C000123636102B070BD01AB6A46FFF7C9FF72
:10218C0000990546304600F08FF848B9B4F90C3088
:10219C009A05EFD423F0030343F00203A381E3E792
:1021AC000D4BB362A389206043F08003A381009B95
:1021BC0020616361019B5BB1B4F90E10304600F0F5
:1021CC008BFD28B1A38923F0030343F00103A38102
:1021DC00A3891D43A581CDE7851F0008024B01464D
:1021EC00186800F061B800BF0C00002082B001B983
:1021FC0001A942B14BB113780B601278101C18BFB7
:10220C00012002B070471046FBE76FF00100F8E7C1
:10221C0038B50546002943D051F8043C0C1F002B5F
:10222C00B8BFE41800F0A2FD1E4A1368104633B97B
:10223C00636014602846BDE8384000F098BDA342A6
:10224C000BD921686218934201BF1A685B68521857
:10225C00226063600460EDE713465A680AB1A2423B
:10226C00FAD919685818A0420BD1206801445818A3
:10227C0082421960DED110685268014419605A60BC
:10228C00D8E702D90C232B60D4E7206821188A42A6
:10229C0001BF116852680918216062605C60C9E76F
:1022AC0038BD00BF0C02002070B5CD1C25F0030515
:1022BC0008350C2D38BF0C25002D064601DBA94234
:1022CC0003D90C233360002070BD00F04FFD234A6E
:1022DC001468214691B9224C23681BB9304600F092
:1022EC0067FC20602946304600F062FC431C26D176
:1022FC000C233046336000F03AFDE4E70B685B1BBF
:10230C001AD40B2B0FD90B60CC18CD50304600F0E3
:10231C002EFD04F10B00231D20F00700C31A1BD067
:10232C005A42E25070BD8C420BBF63684B6813601D
:10233C00636018BF0C46E9E70C464968CAE7C41C41
:10234C0024F00304A04205D0211A304600F030FCE2
:10235C000130CDD02560D9E770BD00BF0C02002044
:10236C00100200202DE9F0478E6882469E420C46F2
:10237C009146984635D88A8912F4906F31D0022351
:10238C00256809696F1A656905EB450595FBF3F539
:10239C0008F101033B449D4238BF1D46530531D51E
:1023AC002946FFF781FF064650B90C23CAF80030C6
:1023BC00A3894FF0FF3043F04003A381BDE8F087C1
:1023CC003A462169FFF7C9FAA38923F4906343F0D5
:1023DC008003A38126613E44266046466561ED1B61
:1023EC00A560464528BF464649463246206800F05F
:1023FC00A3FCA36800209B1BA36023681E442660DB
:10240C00BDE8F0872A4600F0B3FC06460028E1D16F
:10241C0021695046FFF7FCFEC7E700002DE9F04F9D
:10242C009DB003938B8980461C060D4616460FD52E
:10243C000B696BB94021FFF737FF2860286128B979
:10244C000C23C8F800304FF0FF30C4E040236B6120
:10245C000023099320238DF8293030234FF0010BF2
:10246C008DF82A3037463C4614F8013B002B3CD102
:10247C00B7EB060A0BD05346324629464046FFF7C7
:10248C0071FF013000F0A280099B534409933B7803
:10249C00002B00F09B8000234FF0FF320493079336
:1024AC00059206938DF853301A93052221785048E3
:1024BC0000F034FC671C049BD8B9D90644BF202219
:1024CC008DF853201A0744BF2B228DF85320227805
:1024DC002A2A16D000210A20079A27463B78013475
:1024EC00303B092B50D9C9B111E0252BC0D0274660
:1024FC00B9E73F4A3C46801A0BFA00F018430490A7
:10250C00D3E7039A111D12680391002A01DB07928D
:10251C0004E0524243F00203079204933B782E2BC3
:10252C000DD17B78791C2A2B32D1039B02371A1DD3
:10253C001B680392002BB8BF4FF0FF3305932D4C53
:10254C0003223978204600F0E9FB38B14023001B08
:10255C0003FA00F0049B01370343049339780622F5
:10256C0025487E1C8DF8281000F0D8FB002835D0AB
:10257C00224BFBB9039B073323F007030833039368
:10258C00099B4B4409936DE700FB02320121A4E740
:10259C0000230A24184605930F463A780131303A45
:1025AC00092A03D9002BCAD00590C8E704FB0020E8
:1025BC000123F1E703AB00932A46114B04A94046D3
:1025CC00AFF30080B0F1FF3F8146D9D1AB895B06F8
:1025DC003FF539AF09981DB0BDE8F08F03AB009300
:1025EC002A46074B04A9404600F0C2F9EAE700BFAF
:1025FC000A300008103000081430000800000000F9
:10260C0071230008936810B4013B002B936008DA27
:10261C009469A34202DBCBB20A2B02D110BCFFF7A8
:10262C0039BB1368581C10601970C8B210BC7047C5
:10263C00F8B506460F461446D518AC4201D1002019
:10264C0007E03A4614F8011B3046FFF7DBFF431C4A
:10265C00F3D1F8BD2DE9F04F9DB00C46174603930E
:10266C00064618B183690BB9FFF7C6FC7C4B9C423C
:10267C0057D17468A38918075DD52369002B5AD0EC
:10268C000023099320238DF8293030234FF0010BC0
:10269C008DF82A30B846454615F8013B002B55D12C
:1026AC00B8EB070A0BD053463A4621463046FFF7A3
:1026BC00BFFF013000F0C480099B5344099398F884
:1026CC000030002B00F0BC8000234FF0FF3204934D
:1026DC000793059206938DF853301A9305222978A7
:1026EC00604800F01BFB05F10108049B002831D168
:1026FC00D90644BF20228DF853201A0744BF2B2241
:10270C008DF853202A782A2A2CD000210A20079AE7
:10271C00A84698F800300135303B092B6DD971B3C0
:10272C0026E0514B9C4201D1B468A3E74F4B9C422D
:10273C0008BFF4689EE721463046FFF7FDFA0028F3
:10274C009ED04FF0FF301DB0BDE8F08F252BA7D0E9
:10275C00A846A0E7434A4546801A0BFA00F01843F6
:10276C000490BBE7039A111D12680391002A01DB48
:10277C00079204E0524243F002030792049398F844
:10278C0000302E2B10D198F8013008F101012A2BC2
:10279C0037D1039B08F102081A1D1B680392002B0A
:1027AC00B8BF4FF0FF330593314D032298F800105A
:1027BC00284600F0B3FA40B14023401B03FA00F066
:1027CC00049B08F101080343049398F800100622B7
:1027DC00284808F101078DF8281000F09FFA00280E
:1027EC0034D0254B03BB039B073323F0070308337B
:1027FC000393099B4B4409934CE700FB02320121E4
:10280C0086E700230A2518460593884698F8002089
:10281C000131303A092A03D9002BC5D00590C3E702
:10282C0005FB00200123F0E703AB00932246134B7A
:10283C0004A93046AFF30080B0F1FF3F8146D8D1F8
:10284C00A3895B063FF57DAF09987CE703AB00934A
:10285C0022460A4B04A9304600F08AF8ECE700BF88
:10286C00C02F00080A300008E02F0008A02F000835
:10287C001030000814300008000000003D2600084D
:10288C002DE9F04791461F468A680B69064693422C
:10289C00B8BF1346C9F8003091F843200C46DDF858
:1028AC00208012B10133C9F800302368990642BF69
:1028BC00D9F800300233C9F80030256815F0060548
:1028CC0007D104F1190AE368D9F800209B1A9D423C
:1028DC002ADB94F843302268003318BF0123920698
:1028EC002FD404F1430239463046C047013022D080
:1028FC002368E56803F00603042B18BF0025D9F8FC
:10290C0000204FF0000908BFAD1AA368226908BF68
:10291C0025EAE5759342C4BF9B1AED181A344D4550
:10292C001BD10020BDE8F0870123524639463046C2
:10293C00C047013003D14FF0FF30BDE8F0870135BF
:10294C00C1E73020E11881F843005A1C94F8451077
:10295C002244023382F84310C3E70123224639464E
:10296C003046C0470130E6D009F10109D7E7000035
:10297C002DE9F04317460A7E85B06E2A9846064626
:10298C000C460C9B01F1430E00F0BC801AD8632A54
:10299C002ED00AD8002A00F0C880582A00F08A806D
:1029AC0004F1420584F842202AE0642A01D0692A05
:1029BC00F6D121681A6811F0800F23D0111D19600F
:1029CC00136827E0732A00F0B48008D86F2A2AD045
:1029DC00702AE5D10A6842F020020A6003E0752AE9
:1029EC0021D0782ADCD178226F4984F8452064E024
:1029FC001A6801F14205111D1960136884F8423000
:102A0C000123A3E011F0400F02F104011960D7D0AB
:102A1C00B2F90030002B03DA2D225B4284F84320FC
:102A2C0062490A2217E02068196810F0800F03D061
:102A3C00081D18600B6806E010F0400F01F104004F
:102A4C001860F7D00B886F2A14BF0A220822574946
:102A5C00002084F843006568002DA560C0F29C80BE
:102A6C00206820F004002060002B3FD1002D40F0A6
:102A7C0095807546082A0BD12368DA0708D5236997
:102A8C0062689A42DEBF302305F8013C05F1FF3540
:102A9C00AEEB05032361CDF800803B4603AA21462B
:102AAC003046FFF7EDFE013055D14FF0FF3005B049
:102ABC00BDE8F08381F845203C492268186812F083
:102ACC00800F00F104051D6001D0036802E055067B
:102ADC00FBD50388D00744BF42F0200222601BB90B
:102AEC00226822F0200222601022B1E77546B3FB67
:102AFC00F2F002FB1033CB5C05F8013D03460028D5
:102B0C00F5D1B7E708681A6810F0800F496904D04E
:102B1C00101D18601368196007E010F0400F02F1E7
:102B2C00040018601368F6D01980002375462361E1
:102B3C00B1E71A68111D19601568002162682846F2
:102B4C0000F0ECF808B1401B60606368236100235F
:102B5C0084F843309FE723692A4639463046C047FC
:102B6C000130A2D023689B0707D5002504F1190971
:102B7C00E368039A9B1A9D4205DBE068039B98422D
:102B8C00B8BF184693E701234A4639463046C0473A
:102B9C0001308AD00135EBE7002BA7D10B7804F17B
:102BAC00420584F8423065E72C3000081B300008E1
:102BBC0038B50023054C054608462360FEF71EFE7B
:102BCC00431C02D1236803B12B6038BDA40A00203A
:102BDC0010B50C46B1F90E1000F0F0F80028ABBFA0
:102BEC00636DA3891B1823F48053ACBF6365A38169
:102BFC0010BD2DE9F0411F468B890546DB050C46BF
:102C0C00164605D502230022B1F90E1000F074F817
:102C1C00A389324623F48053A381B4F90E103B46AA
:102C2C002846BDE8F04100F023B810B50C46B1F9C8
:102C3C000E1000F061F8431CA38915BF606523F4E6
:102C4C00805343F48053A38118BFA38110BDB1F905
:102C5C000E1000F01FB849B1FF2A8BBF8A230A70EF
:102C6C000360012088BF4FF0FF3070470846704763
:102C7C0038B50546084611460022054C22601A4616
:102C8C00FEF73AFC431C02D1236803B12B6038BD1C
:102C9C00A40A002038B50023054C054608462360DD
:102CAC00FEF7C6FD431C02D1236803B12B6038BD6F
:102CBC00A40A002038B50023064C054608461146E8
:102CCC002360FEF7B8FD431C02D1236803B12B60CF
:102CDC0038BD00BFA40A002038B50023054C0546BA
:102CEC0008462360FEF7ACFD431C02D1236803B1F8
:102CFC002B6038BDA40A002038B50546084611469D
:102D0C000022054C22601A46FEF79CFD431C02D1A2
:102D1C00236803B12B6038BDA40A002010B5C9B2DA
:102D2C0002449042034601D1002010BD1C780130B2
:102D3C008C42F6D1184610BD884210B501EB020347
:102D4C0003D8421E99420CD110BD9842F9D2811879
:102D5C00D21AD34200D110BD13F8014D01F8014D28
:102D6C00F7E711F8014B02F8014FEBE7704770479A
:102D7C00F8B5074614460E4621B91146BDE8F84091
:102D8C00FFF792BA22B9FFF743FA25462846F8BD59
:102D9C0000F026F884420FD921463846FFF784FA12
:102DAC0005460028F2D031462246FEF7D6FD3146C4
:102DBC003846FFF72DFAE9E73546E7E738B505461B
:102DCC00084611460022054C22601A46FEF708FD03
:102DDC00431C02D1236803B12B6038BDA40A002028
:102DEC0051F8040C0028A0F10400BCBF0B58C0180B
:102DFC0070470000F8B500BFF8BC08BC9E46704791
:0C2E0C00F8B500BFF8BC08BC9E4670473B
:102E180002030405060708090A0B0C0D0E0F101013
:102E280043575354415254534D41525400416972CF
:102E38004B69737320537563636573732021210D88
:102E4800004349465352004349504D5558004349A1
:102E5800505345525645520041542B25733D256425
:102E68000D0A0041542B25730D0A0041542B25737C
:102E78005F4355523D25640D0A0041542B25735F6D
:102E88004445463D25640D0A0041542B25735F4394
:102E980055523D25730D0A0041542B25735F444557
:102EA800463D25730D0A0041542B25733D25730DAE
:102EB8000A0041542B25733D25642C25640D0A0016
:102EC80073656E645B25645D25730D0A0043574D79
:102ED8004F44450043574C41500043574A41500026
:102EE8002254656464795F4150222C223132333494
:102EF800353637382200636F6E6E656374656420FB
:102F080077696669002B4950442C003A004C454EBD
:102F18003A25642C207374723A2573200D0A0073C5
:102F28006F636B65743A202564204C454E3A2564DE
:102F380020646174613A2573200D0A007265637616
:102F48005B25645D2573200D0A0075325B25645D81
:102F580025730D0A0043495053454E440073656E6E
:102F68006420646174615B25645D25730D0A004803
:102F7800656C6C6F2021210D00000000000000002E
:102F8800000102030406070809000000000102030B
:102F980004000000100000200000000000000000F5
:102FA8000000000000000000000000000000000019
:102FB8000000000000000000000000000000000009
:102FC80000000000000000000000000000000000F9
:102FD80000000000000000000000000000000000E9
:102FE80000000000000000000000000000000000D9
:102FF80000000000000000004300504F53495800F3
:103008002E00232D302B2000686C4C006566674528
:103018004647003031323334353637383941424348
:1030280044454600303132333435363738396162F9
:1030380063646566000020202020202020202028AE
:103048002828282820202020202020202020202058
:103058002020202020208810101010101010101090
:1030680010101010101004040404040404040404D0
:10307800101010101010104141414141410101014F
:103088000101010101010101010101010101010128
:103098000110101010101042424242424202020235
:1030A80002020202020202020202020202020202F8
:1030B80002101010102000000000000000000000A6
:1030C80000000000000000000000000000000000F8
:1030D80000000000000000000000000000000000E8
:1030E80000000000000000000000000000000000D8
:1030F80000000000000000000000000000000000C8
:1031080000000000000000000000000000000000B7
:1031180000000000000000000000000000000000A7
:103128000000000000000000000000000000000097
:0831380000000000000000008F
:043140003101000851
:043144000D01000871
:10314800010000001000000000A24A041000002046
:1031580000000000C02F0008E02F0008A02F000882
:103168000000000000000000000000000000000057
:103178000000000000000000000000000000000047
:103188000000000000000000000000000000000037
:103198000000000000000000000000000000000027
:1031A8000000000000000000000000000000000017
:1031B80043000000000000000000000000000000C4
:1031C80000000000000000000000000000000000F7
:1031D80043000000000000000000000000000000A4
:1031E80000000000000000000000000000000000D7
:1031F8004300000000000000000000000000000084
:1032080000000000000000000000000000000000B6
:103218004300000000000000000000000000000063
:103228000000000000000000000000000000000096
:103238004300000000000000000000000000000043
:103248000000000000000000000000000000000076
:103258004300000000000000000000000000000023
:103268000000000000000000000000000000000056
:103278004300000000000000000000000000000003
:103288000000000000000000000000000000000036
:10329800632C0008F9210008000000003D300008F8
:1032A80008300008432F0008432F0008432F000868
:1032B800432F0008432F0008432F0008432F00081E
:1032C800432F0008432F0008FFFFFFFFFFFFFFFF0A
:1032D800FFFFFFFFFFFF0000010041534349490082
:1032E80000000000000000000000000000000000D6
:1032F800000000000000000000004153434949005D
:1033080000000000000000000000000000000000B5
:0C331800000000000000000000000000A9
:04000005080018A136
:00000001FF
